:1000000071EF04F00000000000EF00F000000000BD
:0A0010000000000000000000F3D71C
:10001C00080E0C6E230E0D6E0D2EFED70C2EFCD77B
:02002C001200C0
:0C002E00100E0D6E0D2EFED7000012000B
:04003A0000001200B0
:10003E000B840BAE2AEF00F0010E036E026A016A0A
:0A004E00006A0A360232FF0E1200AB
:080058000AAE029E000E120028
:100060000001A8BF02D08C9601D08C86A8BD02D01A
:100070008C9401D08C84A8BB02D08C9201D08C824D
:10008000A8B902D08C9001D08C8068B002D08C8846
:1000900001D08C988C8AD1DF8C9AA8B702D08C962C
:1000A00001D08C86A8B502D08C9401D08C84A8B3E2
:1000B00002D08C9201D08C82A8B102D08C9001D059
:1000C0008C8068B002D08C8801D08C988C8AB5DF87
:0E00D0008C9A68A002D0A2DF01D0A9DF120036
:0E00DE00026A016A006A086A036A000E1200D4
:1000EC00086A096A100E0C6E013408360936045081
:1000FC00085E0550D8A0053C095ED8B007D0045066
:10010C0008260550D8B0053C0926D8900036013693
:06011C000C2EEAD71200D0
:100122000B820BAE9BEF00F0036802680168006867
:080132000A360232FF0E120032
:10013A000001A56B050EA55D0AE2A551A325E16E96
:10014A00000EA421E26E200EE66EA52BF3D7A55170
:10015A00A325E16E000EA421E26EE66AA507A55169
:10016A00A325A66F000EA421A76F0A0E046E000E27
:10017A00056EA1C000F0A2C001F0B3DF08C000F014
:10018A0009C001F0300E0026A6C0E1FFA7C0E2FFB9
:10019A0000C0E6FF0A0E046E000E056EA1C000F054
:1001AA00A2C001F09EDF00C0A1F001C0A2F0000EC3
:1001BA00011802E1000E001801E102D0A507CFD70D
:0201CA00120021
:1001CC00C40E386E020E396EA10E3A6E000E3B6EE6
:1001DC00920E3D6E050E3E6E000E3F6E000E406E92
:1001EC00FA0E456E040E466E000E476E000E486EFB
:1001FC00FF0E416EFF0E426E000E436E000E446EFB
:10020C00AC8A900EAB6E948E949C9EAA03D0AECF0B
:06021C0000F0FBD7120008
:100222000B800BAE1DEF01F0026A0AAEFF0E026EEA
:0C023200016E006E0A360232FF0E120050
:08023E000B6A0B86FF0E120093
:100246000C6A0E6A0250D8A43CEF01F001C002F01D
:1002560000C001F0006A0E860250D8A43CEF01F0FF
:1002660001C002F0016A0E960E880250D8B44EEF15
:1002760001F00E50035ED8A4D8A053EF01F0D89039
:1002860002BE58EF01F0003601360236032E43EF68
:1002960001F053EF01F0010E0C6E1EDF5BEF01F073
:1002A600020E0C6EC9DE5BEF01F0040E0C6ED1DEA1
:0202B600120034
:0C02B8006890A1C0A8F0D0DE68801200A1
:0E02C400ACB202D00000FCD7A1C0ADFF12000A
:1002D200959A959895909592959495968C9A8C98D6
:1002E2008C968C948C928C9098DE97DE96DE8C8223
:1002F2008C808C8AA1DE8C9A90DE8C8A9DDE8C9A10
:100302008CDE8C8A99DE8C9A88DE8C908C8A94DEC4
:100312008C9A83DE8C8A90DE8C9A8C928C868C8A64
:100322008BDE8C9A7ADE8C968C808C8A85DE8C9A17
:100332008C908C8A81DE8C9A70DE8C8A7DDE8C9A1F
:100342008C808C8A79DE8C9A68DE8C908C8A74DE42
:100352008C9A8C868C848C828C808C8A6DDE8C9AB2
:060362005CDE6880120061
:10036800190EAF6EAC842EDF820E0C6EDD0E0D6E94
:0E0378000D2EFED70C2EFCD700000000120048
:100386000450000A12E10550000A0FE10650000A67
:100396000CE10750000A09E1FF0E006EFF0E016E28
:1003A6007F0E026EFF0E036EA4D0086A096A07501C
:1003B600D8B46EEF02F00350D8B472EF02F00250D8
:1003C60006180A6E028E068E0E6A02C008F001C07A
:1003D6000CF000C00DF004500D5E0550D8A0053C91
:1003E6000C5E0650D8A0063C085E086A0C6A0D6AC8
:1003F600D8A005EF02F0D89002320132003208325E
:10040600010E0E6E0750035ED8A012EF02F07E0EAC
:100416000E240326D8B076EF02F018EF02F07E0E17
:100426000E240326D8A07AEF02F0180E0B6E0D36B6
:100436000C3608360036013602360E360450005E9B
:100446000550D8A0053C015E0650D8A0063C025EC9
:1004560006340E120EA033EF02F00D803EEF02F0CE
:10046600045000260550D8B0053C01260650D8B0E9
:10047600062802260D900B2E1AEF02F064EF02F00A
:10048600D8900036013602360E360450005E05500E
:10049600D8A0053C015E0650D8A0063C025E063494
:1004A6000E10010B0D26D8B00C2AD8B4082AD8A4F1
:1004B60064EF02F008320C320D32032AD8B476EF1C
:1004C60002F00AAE089E0850026E0C50016E0D50E6
:1004D600006E7CEF02F0010EAFDE7CEF02F0020E42
:1004E600FBDD7CEF02F0040E19DE7CEF02F0080E55
:0404F600A3DD120070
:0A04FA00000E9EBA010E006E120003
:100504000900F5CFE6FF0006FBE10106F9E1120060
:1005140010D0800E0001976F1AD0C00E976F17D0BD
:10052400940E976F14D0D40E976F11D0800E976FDE
:100534000ED000019751010AECE09751020AEDE058
:100544009751030AEDE09751040AEDE0EFD79805BF
:10055400006E9751002600C097F000C0A8F07EDD21
:1005640068909B6B9B519925E96E000E9A21EA6E67
:10057400EE520BE09B519925E96E000E9A21EA6E2A
:0E058400EECFA1F097DE9B2BEDD76880120022
:10059200AECF01F0ABA202D0AB98AB8801C000F0A5
:0205A200120045
:1005A400086A096A000E0762036457EF03F00250F9
:1005B40006180A6E075003267E0ED8A0E8EF02F054
:1005C400035ED8B05BEF03F0ECEF02F0035ED8A05B
:1005D4005FEF03F0028E068E02C00EF001C00BF036
:1005E40000C00DF000500402F4CF0CF001500502DD
:1005F400F4CF00F0F3CF08F00402F3500C26F450CB
:100604000822000E00220D500502F3500C26F4506F
:100614000822000E002202500402F3500826F4506F
:10062400002202500502016A000E0122F350002646
:10063400F45001220D500602F3500826F450002213
:10064400026A000E012202220B500602F350002619
:10065400F4500122000E02220E500602F35001262D
:10066400F450022202BE3FEF03F008360036013692
:1006740002360306D8B45FEF03F052EF03F0D880DC
:10068400800E08640030000E002201220222D8A04D
:1006940052EF03F0023201320032034A5BEF03F0FF
:1006A4000AAE029E000E61EF03F0010E16DD61EF4B
:1006B40003F0020E34DD61EF03F0040EBEDC120021
:1006C40000019D6B9E6B97C09FF098C0A0F0800EB8
:1006D4009819006E800E005C02E1000E975D0BE23B
:1006E400010E9D6F000E9E6F975100089F6F98C07A
:1006F400A0F0000EA0579FC0A1F0A0C0A2F099C026
:10070400A3F09AC0A4F017DD060E9B6F000E9C6F39
:10071400000E006E9C51005C02E19B51000819E23E
:100724009B519925E16E9C519A21E26E010E9B5DCD
:10073400006E000E9C59016E00509925E96E01501F
:100744009A21EA6EEECFE6FF010E9B5F000E9C5BE2
:10075400DFD799C0E1FF9AC0E2FF200EE66E9D51FB
:100764009E111AE09B6B9C6B9B519925E96E9C51E1
:100774009A21EA6EEE50200A03E19B4B9C2BF4D79E
:10078400010E9B5F000E9C5B9B519925E16E9C5171
:0A0794009A21E26E2D0EE66E1200AF
:10079E000B6A0C6A0A6A0350D8B419EF04F0028E81
:1007AE008E0E035E03BEE1EF03F0D8B4E1EF03F06B
:1007BE001DEF04F0036C080E035CD8A0F8EF03F0F5
:1007CE00036E013602C001F0026A080E035CD8A067
:1007DE00F8EF03F00136016A0350D8A4D89002EF67
:1007EE0004F00350D8B402EF04F0D8900232013274
:1007FE00032EFCEF03F00BBC01A00FEF04F0D8A00A
:10080E000FEF04F0012AD8B4022A02BE2CEF04F036
:10081E000AAE31EF04F0021E011E012AD8B4022ADC
:10082E0031EF04F0026A016A31EF04F00B800BAE77
:10083E0035EF04F0026A0AAE35EF04F0FF0E026ED9
:10084E00016E0A36023235EF04F0010E0C6EE2DC58
:10085E0037EF04F0000E0C6E37EF04F0FF0E0C6E47
:0A086E000150006E0250016E1200EE
:080878009398939A939C1200DF
:0608800093909382120028
:1008860000019A6B97C0E9FF98C0EAFFEECF99F096
:100896009951000A0EE099C0A1F011DD00019A2BD2
:1008A6009A519725E96E000E9821EA6EEECF99F0DF
:0408B600EFD7120066
:1008BA000050086E0150006E016A026A036A0B6AF0
:1008CA000C6A960E036E0A6A00C001F008C000F0B6
:0808DA00086A026AB3DC120097
:1008E200A0EC05F0F5DC010E0001A86F30EC00F081
:1008F2000C0EA86F30EC00F0010E976F010E986F8E
:10090200440E696E690E6A6E730E6B6E740E6C6EB7
:10091200610E6D6E6E0E6E6E630E6F6E650E706E94
:100922003A0E716E726A690E996F000E9A6FF1DD5E
:100932001ADDA5DFA0DF8A80030E0D6E0D2EFED715
:100942008A9081B201D0FDD7CF6ACE6ACD8081A2D2
:1009520001D0FDD7CD90CFCF01F0006ACE5000126A
:10096200000E0112A9DF280E046E7E0E056E0C0E1B
:10097200066E7A0E076E15DE000E046E000E056E10
:10098200000E066E800E076EFDDC08DF00C095F0DB
:1009920001C096F000C097F001C098F0590E000116
:1009A200996F000E9A6F8DDE020E976F010E986F8F
:1009B200590E996F000E9A6FACDD020E976F0A0EF8
:1009C200986F630E736E6D0E746E756A730E996F07
:1009D200000E9A6F9EDD000E965D02E10A0E955D95
:1009E20004E28A8C8A9A8A980DD0000E965D02E102
:1009F200140E955D04E28A9C8A8A8A9803D08A9CA6
:100A02008A9A8A8895C097F096C098F0490E996F95
:100A1200000E9A6F56DE440E766E690E776E730E76
:100A2200786E740E796E610E7A6E6E0E7B6E630E48
:100A32007C6E650E7D6E3A0E7E6E200E7F6E806B32
:100A4200760E976F000E986F1DDF490E976F000E9E
:100A5200986F18DF200E816F630E826F6D0E836FA9
:100A62000D0E846F0A0E856F866B810E976F000ED6
:100A7200986F08DF41DD00522CE08ADD00C058F09B
:100A8200470E0001876F500E886F530E896F200E3C
:100A92008A6F440E8B6F610E8C6F740E8D6F610EB8
:100AA2008E6F3A0E8F6F200E906F916B870E976F3D
:100AB200000E986FE7DE58C0A1F003DC0D0E0001B6
:100AC200926F0A0E936F946B920E976F000E986F4F
:100AD200D9DE030E0B6E8A0E0C6E550E0D6E0D2EA8
:100AE200FED70C2EFCD70B2EFAD70000000023D71E
:020AF200FFD72C
:100B400010EE15F0200E006E010E016E200EF66EF6
:0E0B50000B0EF76E000EF86E82EC02F0120033
:0A0AF40044697374616E63653A0093
:030AFE00636D0025
:0B0B010044697374616E63653A200064
:060B0C0020636D0D0A00DC
:0B0B120047505320446174613A2000FA
:030B1D000D0A00BE
:080B200037003C0036003500EF
:080B28003C00360035003700E7
:080B3000350037003C003600DF
:080B38003600350037003C00D7
:020000040030CA
:0D000100220F0EFF0181FF0FC00FE00F4026
:00000001FF
